:020000040800F2
:10000000005000204D0100089501000895010008EE
:100010009501000895010008950100080000000006
:100020000000000000000000000000009501000832
:1000300095010008000000009501000895010008E6
:100040009501000895010008950100089501000838
:100050009501000895010008950100089501000828
:100060009501000895010008950100089501000818
:100070009501000895010008950100089501000808
:1000800095010008950100089501000895010008F8
:1000900095010008950100089501000895010008E8
:1000A00095010008950100089501000895010008D8
:1000B00095010008950100089501000895010008C8
:1000C00095010008950100089501000895010008B8
:1000D00095010008950100089501000895010008A8
:1000E0009501000895010008950100080000000036
:1000F0000000000000000000000000000000000000
:0C01000000000000000000005FF808F1A3
:10010C0010B5054C237833B9044B13B10448AFF345
:10011C0000800123237010BD2C040020000000007F
:10012C007003000808B5034B1BB103490348AFF338
:10013C00008008BD0000000030040020700300089F
:10014C00002103E00B4B5B58435004310A480B4B26
:10015C0042189A42F6D30A4A02E0002342F8043BC2
:10016C00084B9A42F9D300F017F800F049F800F068
:10017C000CF8704798030008000000202C040020A5
:10018C002C0400206C040020FEE780B400AF00BFFC
:10019C00BD4680BC7047000080B400AF154B1B6897
:1001AC00144A43F001031360124B5A681149124B65
:1001BC0013404B600F4B1B680E4A23F0847323F4DF
:1001CC00803313600B4B1B680A4A23F480231360A3
:1001DC00084B5B68074A23F4FE035360054B4FF44E
:1001EC001F029A60054B4FF000629A6000BFBD463B
:1001FC0080BC7047001002400000FFF800ED00E0EA
:10020C0070B50D4E0D4D761BB61006D00024013482
:10021C0055F8043B9847A642F9D1094E094D00F018
:10022C00A1F8761BB61006D00024013455F8043B17
:10023C009847A642F9D170BD8C0300088C030008C6
:10024C00940300088C030008024B13B1024800F021
:10025C0005B8704700000000750200080023014635
:10026C001A46184600F01EB838B50A4C0A4D641BE5
:10027C00A4100AD004F18043013B05EB8305013C3B
:10028C0055F804399847002CF9D1BDE8384000F0F6
:10029C006FB800BF9803000894030008704700BFB4
:1002AC00704700BF2DE9F8432B4D06462868984649
:1002BC000F469146FFF7F2FF284B1C68D4F84831E3
:1002CC00002B3DD05A681F2A0DDC02F1010C16BB25
:1002DC000232C3F804C0286843F82270FFF7E0FF2D
:1002EC000020BDE8F8831E4B7BB34FF4C870AFF30E
:1002FC000080034648B30020D4F848114FF0010C9D
:10030C00C3E900100246C4F84831C3F88801C3F8A9
:10031C008C01002EDCD0012103EB8204C4F8889000
:10032C00D3F8880191400843022EC3F88801C4F821
:10033C000881CDD1D3F88C010143C3F88C11C7E7E8
:10034C0004F5A673C4F84831BCE72868FFF7A8FF8A
:10035C004FF0FF30C5E700BF2804002088030008D9
:10036C0000000000F8B500BFF8BC08BC9E46704702
:0C037C00F8B500BFF8BC08BC9E467047F6
:040388000000002051
:08038C005502000831010008D0
:040394000D0100084F
:1003980000000000EC02002054030020BC030020F1
:1003A8000000000000000000000000000000000045
:1003B8000000000000000000000000000000000035
:1003C8000000000000000000000000000000000025
:1003D8000000000000000000000000000000000015
:1003E8000000000000000000000000000000000005
:1003F80000000000000000000000000000000000F5
:1004080000000000000000000000000000000000E4
:1004180000000000000000000000000000000000D4
:1004280000000000000000000000000000000000C4
:1004380000000000000000000100000000000000B3
:100448000E33CDAB34126DE6ECDE05000B00000078
:100458000000000000000000000000000000000094
:100468000000000000000000000000000000000084
:100478000000000000000000000000000000000074
:100488000000000000000000000000000000000064
:0C07B800000000000000000048040020C9
:040000050800014DA1
:00000001FF
